:100000000C9456000C9473000C9473000C947300C1
:100010000C9473000C9473000C9473000C94B10650
:100020000C9473000C94D6060C9473000C9473001B
:100030000C9473000C9473000C9473000C94730074
:100040000C9473000C9473000C9473000C94730064
:100050000C9473000C9473000C9473000C94730054
:100060000C9473000C9473000C9473000C94730044
:100070000C9473000C9473000C9473000C94730034
:100080000C9473000C9473000C9473000C94730024
:100090000C9473000C9473000C9473000C94730014
:1000A0000C9473000C9455060C94730011241FBE1D
:1000B000CFEFDAE0DEBFCDBF13E0A0E0B1E0ECE5CA
:1000C000FDE102C005900D92A831B107D9F713E008
:1000D000A8E1B3E001C01D92A635B107E1F70E9487
:1000E000D0040C94AC0E0C94000054985C9A0895C3
:1000F000089585988D9A08958198899A0895259AEA
:10010000269A089590E0AA2797FDA095BA2FBC01E2
:10011000CD010E94550B2CEA3CE142E85FE30E94CE
:100120002B0A0E94550870938900609388000895F7
:1001300090E090938B0080938A0008950F931F9313
:10014000082F10E0B801882777FD8095982F0E942E
:10015000550B2CEA3CE142E85FE30E942B0A0E9427
:100160005508709389006093880010938B0000936A
:100170008A001F910F9108951092890010928800B3
:1001800010928B0010928A0008952A98299881E095
:100190008093330308952A9A299A1092330308957D
:1001A0008091330391E0892780933303882319F0EA
:1001B0002A9A299A08952A982998089529982A9A76
:1001C00085E892E0A0E0B0E0809338039093390393
:1001D000A0933A03B0933B0380E090E0A0E0B0E04E
:1001E0004CE350E060E971E013C050938900409304
:1001F000880050938B0040938A0028EE33E0FB0187
:100200003197F1F721503040D1F7C796A11DB11DAC
:10021000853822E0920720E0A20720E0B20728F309
:100220008093400390934103A0934203B093430310
:10023000109289001092880010928B0010928A0010
:100240000895299A2A9885E892E0A0E0B0E080938A
:10025000380390933903A0933A03B0933B0380E0B3
:1002600090E0A0E0B0E04CE350E060E971E013C042
:10027000509389004093880050938B0040938A00EC
:1002800028EE33E0FB013197F1F721503040D1F7F0
:10029000C796A11DB11D853822E0920720E0A20774
:1002A00020E0B20728F380933C0390933D03A09392
:1002B0003E03B0933F031092890010928800109281
:1002C0008B0010928A000895EF92FF920F931F9374
:1002D000CF93DF93299A2A988DE893E0A0E0B0E0CD
:1002E0008093380390933903A0933A03B0933B0370
:1002F00060E070E080E090E028E9E22EF12C06E971
:1003000010E0C0E4DCE915C0F0928900E0928800BA
:1003100010938B0000938A00FE013197F1F70E9441
:10032000070C20E030E040EE50E40E94FE090E94FD
:1003300055086D3823E0720720E0820720E092071D
:1003400018F360934403709345038093460390939E
:100350004703109289001092880010928B0010922F
:100360008A00DF91CF911F910F91FF90EF90089538
:1003700020E09091310380913003981709F421E037
:10038000822F08950F931F930E94B305609320035B
:10039000709321038093220390932303613A2AEF01
:1003A000720721E082072EEF920729F48091000165
:1003B0000E9421010CC061322AEF720721E08207FE
:1003C0002EEF920791F4809100010E94DE001092BE
:1003D0002003109221031092220310922303809194
:1003E00032038F5F809332035FC060322BEF72075E
:1003F00021E082072EEF9207C1F52A9A299A1092DE
:1004000033030091000110E0B801882777FD809543
:10041000982F0E94550B2CEA3CE142E85FE30E94D2
:100420002B0A0E94550870938900609388001093EE
:100430008B0000938A0080E197E220E931E0F90126
:100440003197F1F70197D9F710928900109288003F
:1004500010928B0010928A001092200310922103B8
:1004600010922203109223031FC061597A4F8140DA
:100470009E4FB9F4809100010E94640115E3812F21
:100480008A95F1F7809100010E9464011A95F1F7B5
:10049000109289001092880010928B0010928A00AE
:1004A00003C085E38A95F1F71F910F9108950E948B
:1004B000B30560931C0370931D0380931E039093F8
:1004C0001F03613B2AEF720721E082072EEF92079C
:1004D00009F4B1C0623B2AEF720721E082072EEFD8
:1004E000920740F561332AEF720721E082072EEF71
:1004F000920709F488C062332AEF720721E082076D
:100500002EEF920738F461517A4F81409E4F09F0E7
:100510009EC037C061352AEF720721E082072EEFB7
:10052000920709F44FC061597A4F81409E4F09F0FC
:100530008EC03DC060312BEF720721E082072EEFA5
:10054000920751F161312BEF720721E082072EEF04
:10055000920738F4615D7A4F81409E4F09F077C071
:1005600047C060332BEF720721E082072EEF92071E
:1005700009F454C060557B4F81409E4F09F067C01D
:100580002CC081E0809330030E944A0783E064E03E
:100590000E94320781E04CC082E0809330030E94C9
:1005A0004A0783E064E00E94320782E041C083E0B2
:1005B000809330030E944A0783E064E00E94320780
:1005C00083E036C084E0809330030E944A0783E0D2
:1005D00064E00E94320784E02BC085E08093300302
:1005E0000E944A0783E064E00E94320785E020C051
:1005F00086E0809330030E944A0783E064E00E9413
:10060000320786E015C087E0809330030E944A07D6
:1006100083E064E00E94320787E00AC088E08093AC
:1006200030030E944A0783E064E00E94320788E0BA
:100630000E94A607089589E0809330030E944A072C
:1006400083E064E00E94320789E00E94A6070895D3
:100650000F931F93CF93DF930E94B305609318030A
:100660007093190380931A0390931B0380E060E05A
:100670000E94320708E213E0CCE1D0E08091180339
:1006800090911903A0911A03B0911B030C2E04C082
:10069000B695A795979587950A94D2F7F801819317
:1006A0008F010E94A6072497FFEFCC3FDF0731F7A9
:1006B000DF91CF911F910F910895AF92BF92CF928A
:1006C000DF92FF920F931F93CF93DF9327982F987A
:1006D000C2E0D1E0FF2440E9A42E46E0B42E38E980
:1006E000C32E38E0D32E0881198180E0B8010E9422
:1006F0007705C5010197F1F7799BF3940E94A10555
:10070000C6010197F1F781E0B8010E947705C501A4
:100710000197F1F7799BF3940E94A105C601019717
:10072000F1F7229681E0CE30D807E9F68F2DDF91E0
:10073000CF911F910F91FF90DF90CF90BF90AF901E
:100740000895FF920F931F9383E068E00E943207A1
:10075000809131030E94A60780E066E00E94320784
:100760000E945D038C3008F4EEC080EE9EE220E92A
:1007700031E0F9013197F1F70197D9F781E00E9453
:10078000A607109289001092880010928B00109298
:100790008A0088EE93E020E931E0F9013197F1F722
:1007A0000197D9F783E068E00E9432078091310316
:1007B0008F5F809331030E94A6072A9A299A10928C
:1007C0003303F09000010F2D10E0B801882777FD6A
:1007D0008095982F0E94550B2CEA3CE142E85FE39C
:1007E0000E942B0A0E94550870938900609388002C
:1007F00010938B0000938A0088EE93E020E931E0AB
:10080000F9013197F1F70197D9F710928900109209
:10081000880010928B0010928A0088EE93E020E905
:1008200031E0F9013197F1F70197D9F79091310350
:10083000809130039817A9F48F2D0E94640115E36D
:10084000812F8A95F1F7809100010E9464011A9529
:10085000F1F7109289001092880010928B0010928C
:100860008A000E94B3056093200370932103809354
:10087000220390932303613A2AEF720721E0820753
:100880002EEF920729F4809100010E9421010CC0F3
:1008900061322AEF720721E082072EEF920791F46E
:1008A000809100010E94DE0010922003109221032B
:1008B0001092220310922303809132038F5F809362
:1008C00032036AC060527B4F81409E4FC1F52A9A25
:1008D000299A109233030091000110E0B801882793
:1008E00077FD8095982F0E94550B2CEA3CE142E859
:1008F0005FE30E942B0A0E94550870938900609361
:10090000880010938B0000938A0080E197E220E931
:1009100031E0F9013197F1F70197D9F71092890089
:100920001092880010928B0010928A00109220037F
:100930001092210310922203109223032DC085E30D
:100940008A95F1F729C00E945D038C3028F580E07C
:100950000E94A6072A98299881E08093330385E3B3
:100960008A95F1F70091000110E0B801882777FD22
:100970008095982F0E94550B2CEA3CE142E85FE3FA
:100980000E942B0A0E94550870938900609388008A
:1009900010938B0000938A001F910F91FF90089590
:1009A0000E940408259A269A1092890010928800C5
:1009B00010928B0010928A000E944A0780E060E04B
:1009C0000E9432070E9457020E94A10390913103B6
:1009D000809130039817C1F780E090E00895AF92BE
:1009E000BF92CF92DF92FF920F931F93CF93DF932B
:1009F00027982F98C2E0D1E0FF2460E9A62E66E098
:100A0000B62E58E9C52E58E0D52E0881198180E010
:100A1000B8010E947705C5010197F1F77D9BF3941A
:100A20000E94A105C6010197F1F781E0B8010E947B
:100A30007705C5010197F1F77D9BF3940E94A1050D
:100A4000C6010197F1F7229681E0CE30D807E9F68A
:100A50008F2DDF91CF911F910F91FF90DF90CF905D
:100A6000BF90AF900895AF92BF92CF92DF92FF9266
:100A70000F931F93CF93DF9327982F98C2E0D1E075
:100A8000FF24E0E9AE2EE6E0BE2E78E9C72E78E03E
:100A9000D72E0881198180E0B8010E947705C50131
:100AA0000197F1F74C9BF3940E94A105C6010197B1
:100AB000F1F781E0B8010E947705C5010197F1F7D0
:100AC0004C9BF3940E94A105C6010197F1F7229671
:100AD00081E0CE30D807E9F68F2DDF91CF911F91BD
:100AE0000F91FF90DF90CF90BF90AF90089510923C
:100AF00071003E98469890E8909390001092910073
:100B0000909392003E9A882311F08E9801C08E9A9D
:100B1000869A80910E0190910F0190939700809397
:100B2000960001979093950080939400709399009C
:100B30006093980082E88093900089E1809391000F
:100B4000089546983E9A82E080939000109291001A
:100B500008958E9A08958E9808958FB190E0969595
:100B6000879581700895AF92BF92CF92DF92EF92F6
:100B7000FF920F931F93EE24FF248701F894A09017
:100B80004803B0904903C0904A03D0904B03609152
:100B9000BE007091BF007894799BFECF7999FECF0B
:100BA000EE0CFF1C001F111FF894809148039091D8
:100BB0004903A0914A03B0914B032091BE003091AC
:100BC000BF00789440E050E02A193B094C095D09C8
:100BD000280F391F4A1F5B1FCB01A0E0B0E0281B84
:100BE000390B4A0B5B0B215D37404040504040F0D1
:100BF00081E090E0A0E0B0E0E82AF92A0A2B1B2B64
:100C0000D801C70180709070A07080509040A040C3
:100C1000BE4F09F0B3CFB701C8011F910F91FF90EC
:100C2000EF90DF90CF90BF90AF90089534B125B191
:100C300023982B9A8AE18A95F1F783B125B934B9C3
:100C400090E043E0969587954A95E1F78170089585
:100C50000E94160691E0892708953AB12BB1559864
:100C60005D9A8AE18A95F1F789B12BB93AB990E09A
:100C700055E0969587955A95E1F7817008950E9401
:100C80002D0691E08927089524B195B12098289ADE
:100C90008AE18A95F1F783B195B924B981700895F5
:100CA0000E94440691E0892708951F920F920FB683
:100CB0000F9211248F939F93AF93BF93809148031A
:100CC00090914903A0914A03B0914B0380509F4FEC
:100CD000AF4FBF4F8093480390934903A0934A03BB
:100CE000B0934B03BF91AF919F918F910F900FBE27
:100CF0000F901F901895F8948091480390914903A4
:100D0000A0914A03B0914B032091BE003091BF00E7
:100D1000789440E050E0280F391F4A1F5B1FB9014B
:100D2000CA01089583ED90E0909399008093980014
:100D300080E48093900089E0809391000895609111
:100D40005003709151038091520390915303089581
:100D500060914C0370914D0380914E0390914F032D
:100D600008951F920F920FB60F9211248F939F93A5
:100D7000AF93BF938091500390915103A091520380
:100D8000B09153030196A11DB11D80935003909320
:100D90005103A0935203B0935303BF91AF919F911E
:100DA0008F910F900FBE0F901F9018951F920F926A
:100DB0000FB60F9211248F939F93AF93BF9380919F
:100DC0006B0084FF13C080914C0390914D03A09160
:100DD0004E03B0914F030196A11DB11D80934C03AA
:100DE00090934D03A0934E03B0934F03BF91AF91E7
:100DF0009F918F910F900FBE0F901F901895582FB5
:100E00004BB190E820E030E0892F852311F05D9A06
:100E100001C05D9800005B9800005B9A96952F5F7B
:100E20003F4F2830310581F745FF02C05D9A089594
:100E30005D9808951F9315B1289A0E94FF0610FF30
:100E400002C0289A01C028981F9108951F9315B1D8
:100E500028980E94FF0610FF02C0289A01C0289817
:100E60001F910895843010F4809354036D3010F472
:100E70006093550308951F93182F823818F48F70CC
:100E80000E94260712951F70812F80610E942607FD
:100E90001F9108950F931F9300E0802F806B0E9495
:100EA000260780E00E943B0710E080E00E941A07BE
:100EB0001F5F1238D1F70F5F083079F71092540393
:100EC000109255031F910F910895CF92DF92EF92E8
:100ED000FF920F931F93F0905403E090550385E029
:100EE000E89EC00111240196C82ECC0C0F2D000FD6
:100EF00062E0D62ED00E083020F4802F806B0E9446
:100F000026078C2D0E943B0710E080E00E941A0704
:100F10001F5F1830D1F70F5F0D1569F78E2D8F5FAA
:100F2000809355038D3059F41092550383E0F816E1
:100F300011F480E002C08F2D8F5F809354031F91C6
:100F40000F91FF90EF90DF90CF9008959F92AF9216
:100F5000BF92CF92DF92EF92FF920F931F93CF93A6
:100F6000DF938F70B09054030B2D000FA0905503AA
:100F700025E0A29E900111242F5F3F4F922E990CE5
:100F8000EE24FF24C82EDD2474E0CC0CDD1C7A9501
:100F9000E1F7083020F4802F806B0E942607892D0E
:100FA0000E943B07E701CC0DDD1DC05FDE4F10E066
:100FB00089910E941A071F5F1830D1F70F5F88E0F0
:100FC00090E0E80EF91E90E1E916F10411F78A2D80
:100FD0008F5F809355038D3059F41092550383E051
:100FE000B81611F480E002C08B2D8F5F80935403FC
:100FF000DF91CF911F910F91FF90EF90DF90CF90F5
:10100000BF90AF909F900895F89480E091E0909306
:1010100087008093860082EA809380008AE1809333
:1010200081008FEF8093D10084E08093720085E08F
:101030008093C10083ED90E0909399008093980095
:1010400020E42093900089E08093910090E19093B8
:101050006A002DBB81E08093680090936B008BBB8E
:101060008BB1837D8BB98AB18C628AB985E38A950D
:10107000F1F78BB18C608BB98AE08A95F1F781EA40
:101080000E94260783ED0E94260780E00E94260723
:1010900088EC0E94260780E40E9426078FEA0E94BF
:1010A00026070E944A0778940895EF92FF920F93C3
:1010B0001F937B018C0120E030E040E05FE40E9460
:1010C000250B88238CF0C801B70120E030E040E018
:1010D0005FE40E94CD090E94B30B9B01AC0120503C
:1010E00030404040504806C0C801B7010E94B30BD1
:1010F0009B01AC01B901CA011F910F91FF90EF90C4
:101100000895A0E0B0E0E7E8F8E00C94750EDC018B
:101110002B01FA019C91923008F439C1EB018881CE
:10112000823008F433C1943069F4843009F02FC15F
:1011300011969C9111978981981709F428C1A0E113
:10114000B2E025C1843009F421C18230A9F4923083
:1011500009F01DC19A01AD0188E0EA010990AE01D4
:10116000E90109929E018150C1F7E201898111963E
:101170009C918923818308C1923009F407C112969A
:101180002D903C901397EB018A819B811496AD9032
:10119000BD90CD90DC901797EC80FD800E811F8173
:1011A0009101281B390BB90137FF04C06627772747
:1011B000621B730B603271050CF061C012161306CE
:1011C0006CF537014801062E04C0969487947794F5
:1011D00067940A94D2F721E030E040E050E004C088
:1011E000220F331F441F551F6A95D2F721503040FC
:1011F000404050402E213F214023512321153105ED
:101200004105510521F021E030E040E050E0790156
:101210008A01E628F728082919293CC0232BD1F197
:10122000260E371E35014601062E04C0969487947B
:10123000779467940A94D2F721E030E040E050E0E0
:1012400004C0220F331F441F551F6A95D2F7215047
:101250003040404050402A213B214C215D21211546
:1012600031054105510521F021E030E040E050E03A
:1012700059016A01A628B728C828D9280BC08215A9
:1012800093052CF01C01AA24BB24650103C0EE24A5
:10129000FF24870111969C91D20111968C91981789
:1012A00009F445C0992339F0A80197012A193B098F
:1012B0004C095D0906C0A60195012E193F09400B96
:1012C000510B57FD08C0118233822282248335835B
:1012D000468357831DC081E0818333822282882721
:1012E0009927DC01821B930BA40BB50B8483958398
:1012F000A683B7830DC0220F331F441F551F2483BD
:1013000035834683578382819381019793838283B8
:101310002481358146815781DA01C9010197A109EC
:10132000B1098F5F9F4FAF4FBF4328F30BC091832D
:1013300033822282EA0CFB1C0C1D1D1DE482F58207
:101340000683178383E0808324813581468157811A
:1013500057FF1AC0C901AA2797FDA095BA2F81701F
:101360009070A070B0705695479537952795822B51
:10137000932BA42BB52B84839583A683B78382817B
:101380009381019693838283DF0101C0D201CD0155
:10139000CDB7DEB7E2E10C94910EA0E2B0E0E3ED50
:1013A000F9E00C94810E69837A838B839C832D836F
:1013B0003E834F835887E9E0EE2EF12CEC0EFD1EA4
:1013C000CE010196B7010E94A40D8E010F5E1F4F42
:1013D000CE010596B8010E94A40D8A8991E0892763
:1013E0008A8BC701B801AE01475E5F4F0E9481083A
:1013F0000E94CF0CA096E6E00C949D0EA0E2B0E017
:10140000E4E0FAE00C94810E69837A838B839C83F9
:101410002D833E834F835887F9E0EF2EF12CEC0E9D
:10142000FD1ECE010196B7010E94A40D8E010F5E34
:101430001F4FCE010596B8010E94A40DC701B80147
:10144000AE01475E5F4F0E9481080E94CF0CA096BC
:10145000E6E00C949D0EA0E2B0E0E1E3FAE00C942B
:10146000750E69837A838B839C832D833E834F83A0
:101470005887CE010196BE01675F7F4F0E94A40D81
:10148000CE010596BE016F5E7F4F0E94A40D998527
:10149000923088F089898230C8F0943019F4823013
:1014A00051F404C0843029F4923081F480E192E058
:1014B000C6C0923049F420E09A858A89981321E0C9
:1014C0002A87CE010996BBC0823049F420E09A8574
:1014D0008A89981321E02A8BCE014196B0C02D84D1
:1014E0003E844F8458886D887E888F88988CEE243F
:1014F000FF248701AA24BB24650140E050E060E09E
:1015000070E0E0E0F0E0C10181709070892BE9F0BB
:10151000E60CF71C081D191D9A01AB012A0D3B1D95
:101520004C1D5D1D80E090E0A0E0B0E0E614F70403
:101530000805190520F481E090E0A0E0B0E0BA01D0
:10154000A901480F591F6A1F7B1FAA0CBB1CCC1C8A
:10155000DD1C97FE08C081E090E0A0E0B0E0A82A82
:10156000B92ACA2ADB2A3196E032F10549F0660C25
:10157000771C881C991C5694479437942794C3CFA2
:10158000FA85EA892B893C898B859C85280F391F30
:101590002E5F3F4F17C0CA0181709070892B61F098
:1015A00016950795F794E79480E090E0A0E0B0E806
:1015B000E82AF92A0A2B1B2B7695679557954795AC
:1015C0002F5F3F4F77FDE7CF0CC0440F551F661FBD
:1015D000771F17FD4160EE0CFF1C001F111F2150EB
:1015E0003040403090E0590790E0690790E4790777
:1015F00060F32B8F3C8FDB01CA018F779070A07056
:10160000B07080349105A105B10561F447FD0AC0B1
:10161000E114F1040105110529F0405C5F4F6F4FA3
:101620007F4F40781A8EFE1711F081E08A8F4D8F20
:101630005E8F6F8F78A383E0898FCE0149960E94D9
:10164000CF0CA096E2E10C94910EA8E1B0E0EBE2A1
:10165000FBE00C94810E69837A838B839C832D83BA
:101660003E834F83588789E0E82EF12CEC0EFD1E57
:10167000CE010196B7010E94A40D8E010F5E1F4F8F
:10168000CE010596B8010E94A40D8985823040F0F4
:101690008989823028F0C701B8010E941C0E01C060
:1016A0008FEF6896E6E00C949D0EA8E0B0E0EBE5C5
:1016B000FBE00C947E0E9B01AC0183E08983DA0190
:1016C000C9018827B7FD83959927AA27BB27B82E7C
:1016D000211531054105510519F482E089833AC08D
:1016E0008823A9F0203080E0380780E0480780E8B0
:1016F000580729F460E070E080E09FEC30C0EE24F1
:10170000FF248701E21AF30A040B150B02C07901CA
:101710008A018EE1C82ED12CDC82CB82ED82FE8242
:101720000F831887C801B7010E94800C0197181613
:10173000190684F4082E04C0EE0CFF1C001F111FB4
:101740000A94D2F7ED82FE820F831887C81AD90A4D
:10175000DC82CB82BA82CE0101960E94CF0C289601
:10176000E9E00C949A0EACE0B0E0E9EBFBE00C94FD
:10177000850E69837A838B839C83CE010196BE019B
:101780006B5F7F4F0E94A40D8D81823061F18230AA
:1017900050F1843021F48E81882351F12EC02F81A5
:1017A000388537FD20C06E812F3131051CF066234E
:1017B000F9F023C08EE190E0821B930B29853A85D6
:1017C0004B855C8504C056954795379527958A9536
:1017D000D2F76623B1F050954095309521953F4F53
:1017E0004F4F5F4F0EC020E030E040E050E009C0B6
:1017F0002FEF3FEF4FEF5FE704C020E030E040E025
:1018000050E8B901CA012C96E2E00C94A10EA8E0C0
:10181000B0E0EDE0FCE00C947D0E7B018C016115E5
:1018200071058105910519F482E0898360C083E028
:1018300089838EE1C82ED12CDC82CB82ED82FE82A0
:101840000F831887C801B7010E94800CFC013197F3
:10185000F7FF3BC0222733272E1B3F0B57016801A0
:10186000022E04C0D694C794B794A7940A94D2F7D2
:1018700040E050E060E070E081E090E0A0E0B0E0A7
:1018800004C0880F991FAA1FBB1F2A95D2F7019782
:10189000A109B1098E219F21A023B1230097A105A1
:1018A000B10521F041E050E060E070E04A295B2999
:1018B0006C297D294D835E836F8378878EE190E06C
:1018C0008E1B9F0B9C838B8312C0309781F00E2E52
:1018D00004C0EE0CFF1C001F111F0A94D2F7ED820A
:1018E000FE820F831887CE1ADF0ADC82CB821A822F
:1018F000CE0101960E94CF0C2896EAE00C94990E36
:10190000EF92FF920F931F937B018C0180E0E8160A
:1019100080E0F80681E0080780E0180788F48FEF80
:10192000E816F1040105110531F028F088E090E097
:10193000A0E0B0E017C080E090E0A0E0B0E012C00E
:1019400080E0E81680E0F80680E0080781E01807EC
:1019500028F088E190E0A0E0B0E004C080E190E0F1
:10196000A0E0B0E020E230E040E050E0281B390B7E
:101970004A0B5B0B04C016950795F794E7948A957C
:10198000D2F7F701E85EFD4F8081281B310941093C
:101990005109C9011F910F91FF90EF900895DF92B7
:1019A000EF92FF920F931F93FC01E480F580068174
:1019B0001781D1808081823048F480E090E0A0E1FE
:1019C000B0E0E82AF92A0A2B1B2BA5C0843009F4C1
:1019D0009FC0823021F4EE24FF24870105C0E1146A
:1019E000F1040105110519F4E0E0F0E096C0628110
:1019F00073819FEF623879070CF05BC022E83FEFFC
:101A0000261B370B2A3131052CF020E030E040E076
:101A100050E02AC0B801A701022E04C07695679550
:101A2000579547950A94D2F781E090E0A0E0B0E0A6
:101A300004C0880F991FAA1FBB1F2A95D2F70197D0
:101A4000A109B1098E219F21A023B1230097A105EF
:101A5000B10521F081E090E0A0E0B0E09A01AB0197
:101A6000282B392B4A2B5B2BDA01C9018F77907019
:101A7000A070B07080349105A105B10539F427FF3D
:101A800009C0205C3F4F4F4F5F4F04C0215C3F4F68
:101A90004F4F5F4FE0E0F0E02030A0E03A07A0E0D9
:101AA0004A07A0E45A0710F0E1E0F0E079018A016A
:101AB00027C06038710564F5FB01E158FF4FD8017C
:101AC000C7018F779070A070B07080349105A10528
:101AD000B10539F4E7FE0DC080E490E0A0E0B0E08D
:101AE00004C08FE390E0A0E0B0E0E80EF91E0A1F0A
:101AF0001B1F17FF05C016950795F794E7943196BD
:101B000087E016950795F794E7948A95D1F705C075
:101B1000EE24FF248701EFEFF0E06E2F6795662734
:101B20006795902F9F77D794DD24D7948E2F869535
:101B3000492F462B582F5D29B701CA011F910F91DC
:101B4000FF90EF90DF900895FC01DB01408151810F
:101B50002281622F6F7770E0221F2227221F93813C
:101B6000892F880F822B282F30E0991F9927991FE2
:101B700011969C93119721153105A9F54115510531
:101B80006105710511F482E037C082E89FEF13967A
:101B90009C938E9312979A01AB0167E0220F331F3B
:101BA000441F551F6A95D1F783E08C930DC0220F17
:101BB000331F441F551F12968D919C9113970197C7
:101BC00013969C938E931297203080E0380780E024
:101BD000480780E4580758F314962D933D934D938E
:101BE0005C93179708952F3F310579F441155105FE
:101BF0006105710519F484E08C93089564FF03C0B6
:101C000081E08C9312C01C9210C02F573040139665
:101C10003C932E93129783E08C9387E0440F551FDB
:101C2000661F771F8A95D1F7706414964D935D9364
:101C30006D937C93179708951F93DC01FB019C9192
:101C4000923008F447C08081823008F443C0943059
:101C500051F411961C91843099F58181682F70E0C0
:101C6000611B71093FC0843021F0923031F4823021
:101C7000B9F18181882389F12DC011961C911197AA
:101C80008230F1F081811817D9F412962D913C9190
:101C90001397828193818217930794F0281739074D
:101CA000BCF014968D919D910D90BC91A02D248136
:101CB000358146815781281739074A075B0718F491
:101CC000112341F00AC082179307A407B50740F417
:101CD000112319F061E070E005C06FEF7FEF02C0E3
:101CE00060E070E0CB011F9108952F923F924F92D8
:101CF0005F926F927F928F929F92AF92BF92CF929C
:101D0000DF92EF92FF920F931F93CF93DF93CDB7A4
:101D1000DEB7CA1BDB0B0FB6F894DEBF0FBECDBF1C
:101D200009942A88398848885F846E847D848C84ED
:101D30009B84AA84B984C884DF80EE80FD800C81F6
:101D40001B81AA81B981CE0FD11D0FB6F894DEBFD9
:0C1D50000FBECDBFED010895F894FFCF49
:101D5C00500104000F002000370055007800A4014A
:101D6C00FCFE0606C636FEFC3F7F6E6360607F3F5E
:101D7C00000008FCFE0000000040607F7F60400017
:101D8C000C0E06068686FEFC7C7E676361616160D4
:101D9C000C0E868686C6FE7C0060616161733F1FF7
:101DAC0080C0603018FCFE000103030303FFFF0337
:101DBC00FEFE8686868686060061616161617F3FD4
:101DCC00FCFE8686868686043F7F616161617F3F6B
:101DDC000606060686E67E1E0060781E07010000D9
:101DEC007CFE86868686FE7C3E7F616161617F3EDD
:101DFC007CFE86868686FEFC0061616161713F1FF8
:101E0C00FCFE86868686FEFC7F7F010101017F7FBA
:101E1C0006FEFE8686C6FC78607F7F6161633F1E8E
:101E2C00FCFE060606060E0C1F7F6060606030101C
:101E3C00FEFE0606060EFCF87F7F606060303F1FDA
:101E4C00FEFE8686868686867F7F61616161616122
:101E5C00FEFE8686868686867F7F01010101010152
:101E6C000000000000000000000102020303030355
:101E7C00040404040404040405050505050505050E
:101E8C0005050505050505050606060606060606EE
:101E9C0006060606060606060606060606060606D6
:101EAC0006060606060606060707070707070707BE
:101EBC0007070707070707070707070707070707A6
:101ECC000707070707070707070707070707070796
:101EDC000707070707070707070707070707070786
:101EEC00070707070707070708080808080808086E
:101EFC000808080808080808080808080808080856
:101F0C000808080808080808080808080808080845
:101F1C000808080808080808080808080808080835
:101F2C000808080808080808080808080808080825
:101F3C000808080808080808080808080808080815
:101F4C000808080808080808080808080808080805
:101F5C0008080808080808080808080808080808F5
:081F6C0008080808080808082D
:00000001FF
