:100000000C9456000C9473000C9473000C947300C1
:100010000C9473000C9473000C9473000C94B3054F
:100020000C9473000C94D8050C9473000C9473001A
:100030000C9473000C9473000C9473000C94730074
:100040000C9473000C9473000C9473000C94730064
:100050000C9473000C9473000C9473000C94730054
:100060000C9473000C9473000C9473000C94730044
:100070000C9473000C9473000C9473000C94730034
:100080000C9473000C9473000C9473000C94730024
:100090000C9473000C9473000C9473000C94730014
:1000A0000C9473000C945A050C94730011241FBE19
:1000B000CFEFDAE0DEBFCDBF12E0A0E0B1E0E8EDC7
:1000C000F0E102C005900D92A030B107D9F722E00F
:1000D000A0E0B2E001C01D92A434B207E1F70E9493
:1000E000E2030C946A080C940000259A269A08955D
:1000F000682F70E080E090E00E94710723E333E313
:1001000043E85FE30E94FD070E9440077093890067
:1001100060938800089590E090938B0080938A000C
:1001200008958DE390E090938900809388008CE39C
:1001300090E090938B0080938A0008952A982998E4
:1001400081E0809335020895109289001092880012
:1001500010928B0010928A0008959091350281E0F0
:10016000892780933502882341F02A9A299A61E0F1
:1001700083E00E94010680E007C02A98299861E088
:1001800083E00E94010681E00C946E069091340297
:1001900081E0892780933402882341F02A9A299AA2
:1001A00064E083E00E94010680E007C02A98299855
:1001B00064E083E00E94010681E00C946E060E94D8
:1001C000AD000C94C6008AEA90E0A0E0B0E0809315
:1001D0002C0290932D02A0932E02B0932F026AEA74
:1001E00070E080E090E00895CF92DF92EF92FF926E
:1001F0000F931F93CF93DF93909134028091350238
:10020000992329F0882361F029982A9A04C0811142
:100210000AC0299A2A9885E892E0A0E0B0E009C0D7
:10022000299A2A9802C029982A9A8AEA92E0A0E09C
:10023000B0E08093280290932902A0932A02B09301
:100240002B020E94A1050091060210910702209145
:10025000080230910902DC01CB01801B910BA20B3B
:10026000B30B80930E0290930F02A0931002B093F1
:1002700011020E94AA050091060210910702209126
:10028000080230910902DC01CB01801B910BA20B0B
:10029000B30B80930A0290930B02A0930C02B093CD
:1002A0000D02CDE3D0E00CE310E0809128029091A4
:1002B0002902A0912A02B0912B0240910E02509186
:1002C0000F02609110027091110284179507A60722
:1002D000B707C8F1D0938900C093880010938B00B2
:1002E00000938A000E94A105C0900602D0900702E8
:1002F000E0900802F0900902DC01CB018C199D0905
:10030000AE09BF0980930E0290930F02A0931002D2
:10031000B09311020E94AA05C0900602D090070275
:10032000E0900802F0900902DC01CB018C199D09D4
:10033000AE09BF0980930A0290930B02A0930C02AE
:10034000B0930D02B2CF40910A0250910B0260911E
:100350000C0270910D0284179507A607B70708F0E5
:10036000B9CFDF91CF911F910F91FF90EF90DF9068
:10037000CF900C94A400CF92DF92EF92FF920F9354
:100380001F93CF93DF93C62F0E949E00809135026A
:10039000882319F02A98299802C02A9A299AC0938A
:1003A00000028FEF8C0F8930C8F48AEA90E0A0E059
:1003B000B0E080932C0290932D02A0932E02B09374
:1003C0002F026C2F70E080E090E00E9471072AE914
:1003D00039E949E95FE30E94FD0722C086EF8C0FEF
:1003E0008A3078F58AEA90E0A0E0B0E080932C02B1
:1003F00090932D02A0932E02B0932F026C2F70E0E9
:1004000080E090E00E9471072AE939E949E95FE359
:100410000E94FD0720E030E040E050E40E94D40656
:1004200020E030E04AE253E40E94FD070E944007CA
:10043000609302027093030280930402909305027A
:100440002BC08CEE8C0F8C30E8F48AEA90E0A0E0B0
:10045000B0E080932C0290932D02A0932E02B093D3
:100460002F026C2F70E080E090E00E9471072AE973
:1004700039E949E95FE30E94FD0720E030E040E808
:100480005FE3CCCFC11108C01092020210920302A8
:1004900010920402109205020E94A105009106022A
:1004A000109107022091080230910902DC01CB0172
:1004B000801B910BA20BB30B80931E0290931F0223
:1004C000A0932002B09321020E94AA050091060287
:1004D000109107022091080230910902DC01CB0142
:1004E000801B910BA20BB30B80931A0290931B02FB
:1004F000A0931C02B0931D02CDE3D0E00CE310E00A
:100500008091020290910302A0910402B091050231
:1005100040911E0250911F026091200270912102B1
:1005200084179507A607B707C8F1D0938900C09331
:10053000880010938B0000938A000E94A105C09050
:100540000602D0900702E0900802F0900902DC0158
:10055000CB018C199D09AE09BF0980931E029093AF
:100560001F02A0932002B09321020E94AA05C0900E
:100570000602D0900702E0900802F0900902DC0128
:10058000CB018C199D09AE09BF0980931A02909383
:100590001B02A0931C02B0931D02B2CF40911A021D
:1005A00050911B0260911C0270911D0284179507E7
:1005B000A607B70708F0B9CFDF91CF911F910F9130
:1005C000FF90EF90DF90CF900C94A4000F931F93B7
:1005D000CF93DF9380913402811103C02A98299828
:1005E00002C02A9A299A609301028FEF860F893000
:1005F00020F086EF860F8A30B0F48AEA90E0A0E01F
:10060000B0E080932C0290932D02A0932E02B09321
:100610002F0270E080E090E00E94710726E636E647
:1006200046E85FE319C08CEE860F8C3040F58AEA0D
:1006300090E0A0E0B0E080932C0290932D02A09374
:100640002E02B0932F0270E080E090E00E947107CC
:100650002DEC3CEC4CE85FE30E94FD0720E030E02D
:100660004AE253E40E94FD070E944007609306029D
:100670007093070280930802909309020AC06111E7
:1006800008C01092060210920702109208021092FF
:1006900009020E94A10560931602709317028093CD
:1006A0001802909319020E94AA0560931202709397
:1006B00013028093140290931502CDE3D0E00CE373
:1006C00010E08091060290910702A0910802B0917B
:1006D0000902409116025091170260911802709120
:1006E000190284179507A607B707E8F0D093890089
:1006F000C093880010938B0000938A000E94A1058C
:100700006093160270931702809318029093190257
:100710000E94AA0560931202709313028093140240
:1007200090931502CECF4091120250911302609126
:1007300014027091150284179507A607B707B0F643
:10074000DF91CF911F910F910C94A400809127020B
:10075000803110F480E004C082958F708093250270
:100760000E946E0680912702809324020E946E06EA
:10077000809127028F5F80932702809127028F311B
:1007800011F410922702089580912602803110F40E
:1007900080E004C082958F70809323020E946E06D1
:1007A00080912602809322020E946E06809126028A
:1007B0008F5F80932602809126028F3111F4109270
:1007C000260208950E94C6060E9475000E94A40099
:1007D0000E94DF00CCE30E942705882341F080912E
:1007E0003302811104C081E08093330216C00E945D
:1007F0001405882391F080913302882371F01092C0
:10080000330261E081E00E9401060E94A60380910C
:100810002702813011F40E94AD000E943F05882319
:1008200041F080913202811104C081E08093320254
:1008300016C00E942C05882391F0809132028823F3
:1008400071F01092320264E081E00E9401060E9481
:10085000C40380912602813011F40E94C6000E94D8
:100860005505882341F080913102811104C081E057
:1008700080933102B0CF0E944405882309F4ABCFA6
:1008800080913102882309F4A6CF10923102C093DF
:100890003002609126028CE30E94E6022FEF83ED86
:1008A00090E3215080409040E1F700C0000080912B
:1008B00030020E94F4002FEF83ED90E3215080403E
:1008C0009040E1F700C00000609127028091300263
:1008D0000E94BB0180CF80E091E0909387008093DD
:1008E000860082EA809380008AE1809381000895E7
:1008F0008FEF8093D10084E08093720085E0809335
:10090000C100089590E190936A0080E48DBB81E07E
:100910008093680090936B008BBB089585B18E7FA8
:1009200085B9089585B1816085B908953BB130726C
:1009300090E813C0292F282321F02BB120622BB976
:1009400003C02BB12F7D2BB900002BB1277F2BB912
:1009500000002BB128602BB996959111EBCF332372
:1009600021F08BB180628BB908958BB18F7D8BB9EB
:100970000895CF93DF93D82FC5B10E9492048D2F95
:100980000E949604C0FF04C085B1816085B903C090
:1009900085B18E7F85B9DF91CF910895CF93DF9395
:1009A000D82FC5B10E948E048D2F0E949604C0FFDF
:1009B00004C085B1816085B903C085B18E7F85B9DA
:1009C000DF91CF910895CF93C62F0E94CE048C2F34
:1009D0000E94CE04CF910895883018F4806B0E9455
:1009E000CE040895CF93C82F823818F48F700E94D8
:1009F000CE048C2F82958F7080610E94CE04CF919F
:100A00000895809136028F5F809336028D3059F4BD
:100A10001092360280913702833011F08F5F01C04F
:100A200080E080933702089594B125B184B1877F27
:100A300084B985B1886085B98AE18A95F1F700C0EB
:100A400083B125B994B983FB882780F908950E9462
:100A5000140591E0892708959AB12BB18AB18F7D51
:100A60008AB98BB180628BB98AE18A95F1F700C0AF
:100A700089B12BB99AB985FB882780F908950E941E
:100A80002C0591E08927089594B125B184B18E7F1A
:100A900084B985B1816085B98AE18A95F1F700C092
:100AA00083B125B994B9817008950E94440591E0FD
:100AB000892708951F920F920FB60F9211248F93DA
:100AC0009F93AF93BF938091400290914102A09178
:100AD0004202B09143029F5FAF4FBF4F80934002ED
:100AE00090934102A0934202B0934302BF91AF9111
:100AF0009F918F910F900FBE0F901F901895F894B3
:100B00002091BE003091BF0080914002909141023F
:100B1000A0914202B0914302BC01CD01620F731F4C
:100B2000811D911D7894089583ED90E09093990034
:100B30008093980080E48093900089E080939100F6
:100B40000895609138027091390280913A02909133
:100B50003B02089560913C0270913D0280913E02FB
:100B600090913F0208951F920F920FB60F92112499
:100B70008F939F93AF93BF938091380290913902E6
:100B8000A0913A02B0913B020196A11DB11D809344
:100B9000380290933902A0933A02B0933B02BF917E
:100BA000AF919F918F910F900FBE0F901F9018954E
:100BB0001F920F920FB60F9211248F939F93AF93B2
:100BC000BF9380916B0084FF13C080913C02909191
:100BD0003D02A0913E02B0913F020196A11DB11DC0
:100BE00080933C0290933D02A0933E02B0933F025B
:100BF000BF91AF919F918F910F900FBE0F901F905B
:100C00001895843010F4809337026D3010F460939F
:100C100036020895CF93DF93D0E00FC08D2F0E944E
:100C2000EC0480E00E94F204C0E004C080E00E9476
:100C3000B904CF5FC238D0F3DF5FD83078F31092B9
:100C4000370210923602DF91CF9108958BB1837DE8
:100C50008BB98AB18C628AB985E38A95F1F7000075
:100C60008BB18C608BB98AE08A95F1F700C081EA7C
:100C70000E94CE0460E083ED0E94E30488EC0E94B1
:100C8000CE0480E40E94CE048FEA0E94CE040E942B
:100C90000A060895CF93DF93D0E019C08091370200
:100CA000880F8D0F0E94EC0480913602880F982FD8
:100CB000990F990F890F8E5F0E94F204C0E004C063
:100CC00080E00E94B904CF5FC830D0F3DF5FD2303C
:100CD00028F30E940105DF91CF910895FF920F93B1
:100CE0001F93CF93DF93CDB7DEB7DA950FB6F894A5
:100CF000DEBF0FBECDBF90E0E0E0F1E0DE01119677
:100D000001900D929A95E1F78F70F82E00E02EC0B9
:100D100080913702880F800F0E94EC048091360288
:100D2000880F982F990F990F890F8E5F0E94F204F8
:100D300010E019C0E02FF0E0EE0FFF1FEE0FFF1FD5
:100D4000EE0FFF1FE10FF11D81E090E08C0F9D1F62
:100D500020E1F29E800D911D1124E80FF91F808182
:100D60000E94B9041F5F183028F30F5F023080F231
:100D70000E940105D3950FB6F894DEBF0FBECDBF1C
:100D8000DF91CF911F910F91FF900895F8940E94E9
:100D90006B040E9478040E9494050E9482040E94C1
:100DA0002606789408955058BB27AA270E94EB0680
:100DB0000C94C3070E94B50738F00E94BC0720F0CE
:100DC00039F49F3F19F426F40C94B2070EF4E09521
:100DD000E7FB0C94AC07E92F0E94D40758F3BA172D
:100DE000620773078407950720F079F4A6F50C9441
:100DF000F6070EF4E0950B2EBA2FA02D0B01B901CA
:100E000090010C01CA01A0011124FF27591B99F080
:100E1000593F50F4503E68F11A16F040A22F232F8C
:100E2000342F4427585FF3CF469537952795A795DC
:100E3000F0405395C9F77EF41F16BA0B620B730B83
:100E4000840BBAF09150A1F0FF0FBB1F661F771FF4
:100E5000881FC2F70EC0BA0F621F731F841F48F4A9
:100E6000879577956795B795F7959E3F08F0B0CF32
:100E70009395880F08F09927EE0F97958795089519
:100E80000E94DC0788F09F5798F0B92F9927B75137
:100E9000B0F0E1F0660F771F881F991F1AF0BA951E
:100EA000C9F714C0B13091F00E94F607B1E008957F
:100EB0000C94F607672F782F8827B85F39F0B93F71
:100EC000CCF3869577956795B395D9F73EF49095D1
:100ED0008095709561957F4F8F4F9F4F0895E8944F
:100EE00009C097FB3EF490958095709561957F4F72
:100EF0008F4F9F4F9923A9F0F92F96E9BB27939520
:100F0000F695879577956795B795F111F8CFFAF42F
:100F1000BB0F11F460FF1BC06F5F7F4F8F4F9F4F60
:100F200016C0882311F096E911C0772321F09EE8BE
:100F3000872F762F05C0662371F096E8862F70E024
:100F400060E02AF09A95660F771F881FDAF7880FFE
:100F50009695879597F9089597F99F6780E870E0CF
:100F600060E008959FEF80EC089500240A9416161F
:100F7000170618060906089500240A941216130687
:100F8000140605060895092E0394000C11F4882315
:100F900052F0BB0F40F4BF2B11F460FF04C06F5F31
:100FA0007F4F8F4F9F4F089557FD9058440F551F07
:100FB00059F05F3F71F04795880F97FB991F61F0DB
:100FC0009F3F79F087950895121613061406551F52
:100FD000F2CF4695F1DF08C0161617061806991FBE
:100FE000F1CF86957105610508940895E894BB27B3
:100FF00066277727CB0197F908950E9410080C9473
:10100000C3070E94B50738F00E94BC0720F0952363
:1010100011F00C94AC070C94B20711240C94F70750
:101020000E94D40770F3959FC1F3950F50E0551FB0
:10103000629FF001729FBB27F00DB11D639FAA272D
:10104000F00DB11DAA1F649F6627B00DA11D661F7C
:10105000829F2227B00DA11D621F739FB00DA11D9D
:10106000621F839FA00D611D221F749F3327A00D57
:10107000611D231F849F600D211D822F762F6A2FF3
:1010800011249F5750409AF0F1F088234AF0EE0F58
:10109000FF1FBB1F661F771F881F91505040A9F785
:1010A0009E3F510580F00C94AC070C94F7075F3F0E
:1010B000E4F3983ED4F3869577956795B795F795C1
:1010C000E7959F5FC1F7FE2B880F911D9695879539
:0810D00097F90895F894FFCF91
:1010D800FCFE0606C636FEFC3F7F6E6360607F3FFF
:1010E800000008FCFE0000000040607F7F604000B8
:1010F8000C0E06068686FEFC7C7E67636161616075
:101108000C0E868686C6FE7C0060616161733F1F97
:1011180080C0603018FCFE000103030303FFFF03D7
:10112800FEFE8686868686060061616161617F3F74
:10113800FCFE8686868686043F7F616161617F3F0B
:101148000606060686E67E1E0060781E0701000079
:101158007CFE86868686FE7C3E7F616161617F3E7D
:101168007CFE86868686FEFC0061616161713F1F98
:10117800FCFE86868686FEFC7F7F010101017F7F5B
:1011880006FEFE8686C6FC78607F7F6161633F1E2F
:10119800FCFE060606060E0C1F7F606060603010BD
:1011A800FEFE0606060EFCF87F7F606060303F1F7B
:1011B800FEFE8686868686867F7F616161616161C3
:1011C800FEFE8686868686867F7F010101010101F3
:00000001FF
